{
  "contractName": "voteContract",
  "abi": [
    {
      "inputs": [
        {
          "internalType": "address",
          "name": "_tokenAddress",
          "type": "address"
        }
      ],
      "stateMutability": "nonpayable",
      "type": "constructor"
    },
    {
      "inputs": [
        {
          "internalType": "string",
          "name": "_candidateName",
          "type": "string"
        },
        {
          "internalType": "uint256",
          "name": "amount",
          "type": "uint256"
        }
      ],
      "name": "vote",
      "outputs": [],
      "stateMutability": "nonpayable",
      "type": "function"
    },
    {
      "inputs": [
        {
          "internalType": "string",
          "name": "_candidateName",
          "type": "string"
        }
      ],
      "name": "getCandidateAmount",
      "outputs": [
        {
          "internalType": "uint256",
          "name": "",
          "type": "uint256"
        }
      ],
      "stateMutability": "view",
      "type": "function"
    },
    {
      "inputs": [
        {
          "internalType": "address",
          "name": "user",
          "type": "address"
        }
      ],
      "name": "getVoterAmount",
      "outputs": [
        {
          "internalType": "uint256",
          "name": "",
          "type": "uint256"
        }
      ],
      "stateMutability": "view",
      "type": "function"
    },
    {
      "inputs": [],
      "name": "claim",
      "outputs": [],
      "stateMutability": "nonpayable",
      "type": "function"
    }
  ],
  "bytecode": "0x600860e0908152673d3430b733b9b0b760c11b6101005260809081526004610120908152636c69736960e01b6101405260a0526101a060405260066101609081526577616e67777560d01b6101805260c05262000061906002906003620000c5565b503480156200006f57600080fd5b50604051620009ff380380620009ff833981016040819052620000929162000231565b600380546001600160a01b0319166001600160a01b038316179055620000bb436103e862000261565b60045550620002c3565b82805482825590600052602060002090810192821562000117579160200282015b828111156200011757825180516200010691849160209091019062000129565b5091602001919060010190620000e6565b5062000125929150620001b4565b5090565b828054620001379062000286565b90600052602060002090601f0160209004810192826200015b5760008555620001a6565b82601f106200017657805160ff1916838001178555620001a6565b82800160010185558215620001a6579182015b82811115620001a657825182559160200191906001019062000189565b5062000125929150620001d5565b8082111562000125576000620001cb8282620001ec565b50600101620001b4565b5b80821115620001255760008155600101620001d6565b508054620001fa9062000286565b6000825580601f106200020e57506200022e565b601f0160209004906000526020600020908101906200022e9190620001d5565b50565b60006020828403121562000243578081fd5b81516001600160a01b03811681146200025a578182fd5b9392505050565b600082198211156200028157634e487b7160e01b81526011600452602481fd5b500190565b6002810460018216806200029b57607f821691505b60208210811415620002bd57634e487b7160e01b600052602260045260246000fd5b50919050565b61072c80620002d36000396000f3fe608060405234801561001057600080fd5b506004361061004c5760003560e01c806309fbde16146100515780634e71d92d1461007a578063750eaba414610084578063a638580314610097575b600080fd5b61006461005f36600461046c565b6100aa565b6040516100719190610653565b60405180910390f35b6100826100c9565b005b6100646100923660046104ba565b610199565b6100826100a53660046104f5565b6101c0565b6001600160a01b0381166000908152600160205260409020545b919050565b60045443116100f35760405162461bcd60e51b81526004016100ea906105e5565b60405180910390fd5b600354336000818152600160205260409081902054905163a9059cbb60e01b81526001600160a01b039093169263a9059cbb92610134929091600401610595565b602060405180830381600087803b15801561014e57600080fd5b505af1158015610162573d6000803e3d6000fd5b505050506040513d601f19601f82011682018060405250810190610186919061049a565b5033600090815260016020526040812055565b600080826040516101aa9190610538565b9081526020016040518091039020549050919050565b816101ca816102ea565b6101e65760405162461bcd60e51b81526004016100ea9061061c565b60045443106102075760405162461bcd60e51b81526004016100ea906105ae565b6003546040516323b872dd60e01b81526001600160a01b03909116906323b872dd9061023b90339030908790600401610571565b602060405180830381600087803b15801561025557600080fd5b505af1158015610269573d6000803e3d6000fd5b505050506040513d601f19601f8201168201806040525081019061028d919061049a565b508160008460405161029f9190610538565b908152602001604051809103902060008282546102bc919061065c565b909155505033600090815260016020526040812080548492906102e090849061065c565b9091555050505050565b6000805b6002548110156103e25760006002828154811061031b57634e487b7160e01b600052603260045260246000fd5b90600052602060002001805461033090610674565b80601f016020809104026020016040519081016040528092919081815260200182805461035c90610674565b80156103a95780601f1061037e576101008083540402835291602001916103a9565b820191906000526020600020905b81548152906001019060200180831161038c57829003601f168201915b505050505090508380519060200120818051906020012014156103d1576001925050506100c4565b506103db816106af565b90506102ee565b50600092915050565b600082601f8301126103fb578081fd5b813567ffffffffffffffff80821115610416576104166106e0565b604051601f8301601f19168101602001828111828210171561043a5761043a6106e0565b604052828152848301602001861015610451578384fd5b82602086016020830137918201602001929092529392505050565b60006020828403121561047d578081fd5b81356001600160a01b0381168114610493578182fd5b9392505050565b6000602082840312156104ab578081fd5b81518015158114610493578182fd5b6000602082840312156104cb578081fd5b813567ffffffffffffffff8111156104e1578182fd5b6104ed848285016103eb565b949350505050565b60008060408385031215610507578081fd5b823567ffffffffffffffff81111561051d578182fd5b610529858286016103eb565b95602094909401359450505050565b60008251815b81811015610558576020818601810151858301520161053e565b818111156105665782828501525b509190910192915050565b6001600160a01b039384168152919092166020820152604081019190915260600190565b6001600160a01b03929092168252602082015260400190565b6020808252601b908201527f656e6420626c6f636b206e756d62657220697320726561636865640000000000604082015260600190565b6020808252601d908201527f656e6420626c6f636b206e756d626572206973206e6f74207265616368000000604082015260600190565b60208082526018908201527f43616e6469646174654e616d6520697320496e76616c69640000000000000000604082015260600190565b90815260200190565b6000821982111561066f5761066f6106ca565b500190565b60028104600182168061068857607f821691505b602082108114156106a957634e487b7160e01b600052602260045260246000fd5b50919050565b60006000198214156106c3576106c36106ca565b5060010190565b634e487b7160e01b600052601160045260246000fd5b634e487b7160e01b600052604160045260246000fdfea26469706673582212202842a23528ba2aec39dcf412087e2e3a1084adf20aad978392d6b149f7a20a0c64736f6c63430008000033",
  "immutableReferences": {},
  "source": "// SPDX-License-Identifier: MIT\npragma solidity ^0.8.0;\n\nimport \"@openzeppelin/contracts/token/ERC20/IERC20.sol\";\n\ncontract voteContract {\n    mapping(string => uint256) candidate;\n    mapping(address => uint256) voter;\n    string[] candidateName = [\"zhangsan\", \"lisi\", \"wangwu\"];\n\n    address tokenAddress;\n    uint256 endBlockNumber;\n\n    modifier checkName(string memory _candidateName) {\n        require(\n            isCandidataNameValid(_candidateName),\n            \"CandidateName is Invalid\"\n        );\n        _;\n    }\n\n    modifier checkEnd() {\n        require(block.number < endBlockNumber, \"end block number is reached\");\n        _;\n    }\n\n    constructor(address _tokenAddress) {\n        tokenAddress = _tokenAddress;\n        endBlockNumber = block.number + 1000;\n    }\n\n    function isCandidataNameValid(string memory _candidateName)\n        internal\n        view\n        returns (bool)\n    {\n        for (uint256 index = 0; index < candidateName.length; ++index) {\n            string memory tempName = candidateName[index];\n            if (\n                keccak256(bytes(tempName)) == keccak256(bytes(_candidateName))\n            ) {\n                return true;\n            }\n        }\n        return false;\n    }\n\n    function vote(string memory _candidateName, uint256 amount)\n        public\n        checkName(_candidateName)\n        checkEnd\n    {\n        IERC20(tokenAddress).transferFrom(msg.sender, address(this), amount);\n        candidate[_candidateName] += amount;\n        voter[msg.sender] += amount;\n    }\n\n    function getCandidateAmount(string memory _candidateName)\n        public\n        view\n        returns (uint256)\n    {\n        return candidate[_candidateName];\n    }\n\n    function getVoterAmount(address user) public view returns (uint256) {\n        return voter[user];\n    }\n\n    function claim() public {\n        require(block.number > endBlockNumber, \"end block number is not reach\");\n\n        IERC20(tokenAddress).transfer(msg.sender, voter[msg.sender]);\n        delete voter[msg.sender];\n    }\n}\n",
  "sourcePath": "/home/xuyapeng/go_workspace/src/github.com/foreststone2020/voteTest/contracts/voteContract.sol",
  "compiler": {
    "name": "solc",
    "version": "0.8.0+commit.c7dfd78e.Emscripten.clang"
  },
  "schemaVersion": "3.3.2",
  "updatedAt": "2021-06-04T08:03:24.159Z",
  "devdoc": {
    "kind": "dev",
    "methods": {},
    "version": 1
  },
  "userdoc": {
    "kind": "user",
    "methods": {},
    "version": 1
  }
}